:020000040800F2
:1000000000800120F11300082514000825140008C1
:10001000251400082514000825140008000000001D
:10002000000000000000000000000000251400088F
:1000300025140008000000002514000825140008FD
:1000400025140008251400082514000825140008AC
:10005000251400082514000825140008251400089C
:10006000251400082514000825140008251400088C
:10007000251400082514000825140008251400087C
:1000800025140008251400082514000800000000AD
:10009000000000000000000000000000251400081F
:1000A000251400082514000825140008251400084C
:1000B000251400082514000825140008251400083C
:1000C000251400082514000825140008251400082C
:1000D000251400082514000825140008000000005D
:1000E000251400082514000825140008000000004D
:1000F00000000000000000000000000025140008BF
:10010000000000002514000825140008251400082C
:1001100000000000000000000000000000000000DF
:1001200025140008251400082514000825140008CB
:10013000251400080000000000000000000000007E
:10014000000000000000000000000000251400086E
:10015000251400082514000825140008251400089B
:10016000251400082514000800000000000000000D
:10017000000000000000000000000000000000007F
:10018000000000002514000800000000000000002E
:1001900025140008044B05481B1A062B02D9044BF2
:1001A00003B11847704700BF2F0A00202C0A002017
:1001B0000000000005490648091A891001EBD171B9
:1001C000491002D0034B03B1184770472C0A002096
:1001D0002C0A00200000000010B5064C237843B91B
:1001E000FFF7D8FF044B13B10448AFF3008001239D
:1001F000237010BD300A002000000000EC8E0008C3
:1002000008B5084B1BB108480849AFF300800848FF
:10021000036813B9BDE80840CCE7064B002BF9D0C2
:100220009847F7E700000000EC8E0008340A002031
:10023000280A002000000000134B002B08BF114BC0
:100240009D46A3F5803A00218B460F461148124A7D
:10025000121A04F007FB0D4B002B00D098470C4BF3
:10026000002B00D098470020002104000D000B480F
:1002700000F048FF03F0F4FE2000290000F092FF98
:1002800000F036FF000008000080012000000000A0
:1002900095110008300A00206C0F0020953D0008E1
:1002A00000B58BB000230393464A464B1B6B43F0CB
:1002B00001031363434B1B6B03F001030393039B85
:1002C000002302933F4A3F4B1B6C43F400331364FB
:1002D0003C4B1B6C03F400330293029B1C230593DD
:1002E000002308930223069301230793072309930E
:1002F00005AB3548194601F0C5F8344B344A1A604D
:10030000324B4FF416525A60304B00229A602F4BFA
:100310004FF40052DA602D4B00221A612B4B0C2255
:100320005A612A4B00229A61284B4FF40072DA611D
:10033000264B00221A62254802F0D4F903468DF8B4
:1003400013309DF81330DBB2032B35D801A252F8DD
:1003500023F000BF65030008B9030008B9030008D3
:10036000B903000801AB19481946032242F2107381
:1003700002F0FCF99DF804308DF812309DF805303C
:100380008DF811309DF806308DF810309DF8123040
:10039000DBB20133DBB28DF812309DF81130DBB2E5
:1003A0000133DBB28DF811309DF81030DBB2013330
:1003B000DBB28DF8103000E000BF002318460BB010
:1003C0005DF804FB00380240000002404C0A0020A7
:1003D0000044004082B001900091009B184602B09A
:1003E000704700BF00B583B00190019BDB68002B14
:1003F00004D0019BDB689B6801989847019B1846D5
:1004000003B05DF804FB00BF00B583B0019000911C
:10041000009B002B05D101980021102204F022FA44
:1004200004E06B460198194600F006F8019B184657
:1004300003B05DF804FB00BF00B583B001900091EC
:1004400001980021102204F00DFA019B04201946A6
:10045000FFF7C0FF0346002B02D0009A12681A6013
:10046000019B024ADA6003B05DF804FBA48900082E
:1004700000B583B001900091019B1B6800989847DC
:1004800003B05DF804FB00BF00B583B0019000919C
:10049000019B04201946FFF79DFF0346002B02D065
:1004A000009A12681A6003B05DF804FB82B00190F4
:1004B00002B0704700B583B00190019B1433184619
:1004C0000021FFF7A1FF019B184603B05DF804FB74
:1004D00000B583B00190019B14331846FFF782FFEB
:1004E000019B184603B05DF804FB00BF30B583B034
:1004F0000190019B01241D4604E0284600F022F8EB
:100500002C35013CB4F1FF3FF7D1019B00229A65E5
:10051000019B0022DA65019B002283F86020019B89
:10052000184603B030BD00BF00B583B00190019BF9
:1005300004331846FFF7CCFF019B184603B05DF863
:1005400004FB00BF00B583B00190019B00221A603C
:10055000019B043300221A60043300221A60043322
:1005600000221A60043300221A60043300221A6049
:10057000043300221A60043300221A60043300227C
:100580001A60043300221A60043300221A60043314
:10059000019B04331846FFF78DFF019B184603B0FB
:1005A0005DF804FB00B583B001900091019B012B25
:1005B0000CD1009B4FF6FF72934207D10548FFF71D
:1005C00095FF04480449054A00F08AFD03B05DF830
:1005D00004FB00BF900A0020E105000898010020FC
:1005E00010B582B00190019B002B0AD0019B03F152
:1005F0005804019B9C4204D02C3C2046FFF794FFFA
:10060000F7E7019B184602B010BD00BF08B50120F6
:100610004FF6FF71FFF7C6FF08BD00BF82B0019023
:100620000091009B002B05D0019B9B68019A1268EA
:100630001A6005E0019BDB68019A126812041A60D7
:1006400002B0704700B585B0039001930B46ADF83A
:100650000A3013468DF80930BDF90A30039819465F
:1006600002F01AFDBDF90A30B3F1FF3F0DD0039837
:100670000199FFF7D3FF0398012102F063FD9DF874
:1006800009300398194602F04BFD05B05DF804FBF4
:1006900000B583B001900B46ADF80230BDF90230D1
:1006A00001981946002200F003F803B05DF804FB3E
:1006B00000B585B003900B460192ADF80A30BDF944
:1006C0000A30039819460022019BFFF7BBFF05B0D3
:1006D0005DF804FB00B583B003460091ADF8063029
:1006E000BDF90630B3F1FF3F00D122E018E0009BD6
:1006F0001B88BDF906201BB29A420ED1009B9B6855
:10070000BDF906201046194602F088FFBDF90630F3
:100710001846002103F010F80BE0009B0C33009307
:10072000009B1B881BB2B3F1FF3FE0D1024800F0F1
:1007300039FB03B05DF804FBB089000800B583B055
:1007400001900091019A009B9A4201D1019B10E017
:10075000019BB3F1FF3F01D1009B0AE0009BB3F185
:10076000FF3F01D1019B04E0044800F01BFB4FF068
:10077000FF33184603B05DF804FB00BFC4890008CE
:1007800082B003460091ADF806300CE0009B1B8858
:10079000BDF906201BB29A4202D1009B5B680AE0B9
:1007A000009B0C330093009B1B881BB2B3F1FF3FEF
:1007B000ECD14FF0FF33184602B0704700B585B05A
:1007C00003460091ADF806304FF0FF330393BDF9B7
:1007D0000630B3F1FF3F02D14FF0FF330EE0BDF919
:1007E000063018460099FFF7CBFF0390039BB3F147
:1007F000FF3F02D1034800F0D5FA039B184605B02D
:100800005DF804FBD889000800B583B00190019B16
:100810005B681B7C002B00D01DE0019B1B681B68E4
:100820009847019B5B6800221A60019B5B6800226D
:100830005A60019B59684FF000024FF00003C1E974
:100840000223019B5B6801221A74019800F038F8BA
:10085000019800F04FF803B05DF804FB88B0CDE9D3
:1008600002010192029A019B9A428CBF012300234C
:100870008DF81730DDE902234FF000004FF0FF3113
:1008800000EA020001EA0301019B1A464FF000034F
:1008900042EA000243EA0103CDE906239DF817303E
:1008A000002B06D0DDE90623003243F10103CDE938
:1008B0000623DDE906231046194608B0704700BF3D
:1008C00070B582B00190019B5E68019B5B68D3E9C3
:1008D0000245019B1B685B689847034620462946F2
:1008E0001A46FFF7BBFF02460B46C6E9022302B0D9
:1008F00070BD00BF00B58DB001900198FFF7E0FF1B
:100900004FF0E0430B93019B5B685B68002B2CD09E
:10091000019B5B68D3E90223CDE90823019B5B6857
:100920005B68D3E90023CDE90623DDE90623DDE991
:100930000801994208BF904204D3019B1B685B6980
:1009400098473AE0DDE90601DDE90823821A61EB08
:1009500003036FF010404FF00001994208BF90422E
:1009600003D3069A089BD31A0B93019B5B68D3E9C8
:1009700002010B9B1A464FF00003121843EB0103D0
:10098000CDE90423019B1B681B69049A1046984714
:100990000198FFF795FF019B5B68D3E90223CDE93E
:1009A0000223DDE90201DDE90423994208BF9042F8
:1009B00003D3019B1B685B6998470DB05DF804FB8E
:1009C00000B585B00190019B1B68DB689847019BCF
:1009D0005B685B68002B00D12AE00198FFF770FF8D
:1009E000019B5B685B68D3E9002301994968D1E901
:1009F0000201994208BF904218D3019B5B685B6873
:100A00000393019B5B68019A52685268D2685A60EE
:100A1000019B5B681B68002B07D0019B5B681B6810
:100A2000039A92681046984701E000E000E0CEE7A4
:100A30000198FFF75FFF05B05DF804FB00B583B0D8
:100A40000190019800F008F802460B46134618463C
:100A500003B05DF804FB00BF00B583B001900198BE
:100A6000FFF7D2FE0198FFF72BFF019B5B68D3E9EC
:100A700002231046194603B05DF804FB014B1846EB
:100A8000704700BF308A000808B50248FFF798FF9A
:100A900008BD00BF308A000800B585B00190009104
:100AA000002303930198009903F002FB0390039B3A
:100AB000184605B05DF804FB00B587B003900291BD
:100AC00001920023059303980299019A03F018FFFD
:100AD0000590059B184607B05DF804FB00B583B090
:100AE000019000910198009903F0B8F903B05DF806
:100AF00004FB00BF00B587B0039002910192002370
:100B0000059303980299019A02F072FF0590059BE4
:100B1000184607B05DF804FB00B585B0039002915C
:100B2000019200F0B3F805480399029A019B00F086
:100B300059F800F019F805B05DF804FB388A000890
:100B400082B001900091009B002B05D0019B9B6817
:100B5000019A12681A6005E0019BDB68019A12682D
:100B600012041A6002B0704700B58BB000F08EF826
:100B700001AB18460521FFF78BFD0023099312E016
:100B800001AB18460121FFF7DBFF962000F012FBB6
:100B900001AB18460021FFF7D3FF962000F00AFBB7
:100BA000099B01330993099B032BE9DD002308937B
:100BB00014E001AB18460121FFF7C2FF4FF4C870E3
:100BC00000F0F8FA01AB18460021FFF7B9FF4FF427
:100BD000C87000F0EFFA089B01330893089B032BC1
:100BE000E7DDCAE70FB400B583B005AB0193049805
:100BF000019900F005F803B05DF804EB04B070470C
:100C000000B5A5B00190009100F040F802AB184685
:100C10008021019A009B04F025F92290229B002B51
:100C20001ADD104B1B68002B04D10F480221032250
:100C300002F00CF8002323930AE002AA239B13443A
:100C40001B780948194602F021F9239B01332393AD
:100C5000239A229B9A42F0DB00F062F825B05DF8FF
:100C600004FB00BF200C0020E00E002082B0EFF358
:100C700010830193019B03F00103002B0CBF0123A0
:100C80000023DBB2184602B0704700BF00B583B046
:100C9000FFF7ECFF0346002B14BF01230023DBB258
:100CA00083F00103DBB28DF807309DF8073003F0C5
:100CB00001038DF8073072B6144B1B68002B03D16B
:100CC000134A9DF807301370104B1B68B3F1FF3FB8
:100CD00004D1104810494322FFF71EFF0B4B1B683D
:100CE000002B0BD09DF8073083F00103DBB2002B03
:100CF00004D00A4808494722FFF70EFF034B1B6840
:100D00000133024A136003B05DF804FB100B0020AE
:100D1000140B00206C8A0008948A0008B08A00082E
:100D200000B583B01B4B1B68002B30D0FFF79EFF34
:100D30000346002B14BF01230023DBB283F0010321
:100D4000DBB28DF807309DF8073003F001038DF812
:100D500007309DF8073083F00103DBB2002B04D08D
:100D60000D480E495822FFF7D7FE0A4B1B68013B7E
:100D7000084A1360074B1B68002B08D1084B1B78EF
:100D8000DBB283F00103DBB2002B00D062B603B00C
:100D90005DF804FB100B0020B08A0008948A00085C
:100DA000140B00200FB400B583B00B4B1B78002B45
:100DB00000D00BE0084B01221A7005AB0193049898
:100DC0000199FFF71DFF012000F092F903B05DF8D3
:100DD00004EB04B0704700BF150B002008B5084BAA
:100DE0001B68002B00D009E006480221032201F015
:100DF0002DFF04484FF4165102F01AF808BD00BF49
:100E0000200C0020E00E002000B585B00190019B71
:100E1000022B01DC00232AE0019B033B164A52F817
:100E200023300393019B033B134A002142F8231014
:100E3000039B002B07D102F00BFE0246092313602F
:100E40004FF0FF3313E0039B1B6814331B680398B8
:100E500098470290029B002B08DA02F0F9FD024647
:100E6000029B5B4213604FF0FF3300E00023184603
:100E700005B05DF804FB00BF200B002000B589B071
:100E80000390029101920093039B022B1ADC214BE9
:100E90001B68002B01D1FFF7A1FF002306930AE096
:100EA000029A069B13441B781B48194601F0EEFF7B
:100EB000069B01330693069A019B9A42F0D3019B4D
:100EC000079322E0039B033B144A52F82330059317
:100ED000059B002B07D102F0BBFD024609231360DE
:100EE0004FF0FF3312E0059B1B680C331B6805981D
:100EF0000299019A98470790079B002B05DA02F0A8
:100F0000A7FD0246079B5B421360079B184609B08A
:100F10005DF804FB200C0020E00E0020200B0020D8
:100F200000B587B00390029101920093039B022BBE
:100F30000FDC1C4B1B68002B01D1FFF74FFF1A4839
:100F400001F086FF0346DAB2029B1A700123059373
:100F500022E0039B033B154A52F823300493049B81
:100F6000002B07D102F074FD0246092313604FF0F5
:100F7000FF3312E0049B1B6808331B680498029936
:100F8000019A98470590059B002B05DA02F060FD59
:100F90000246059B5B421360059B184607B05DF84F
:100FA00004FB00BF200C0020E00E0020200B0020DE
:100FB00000B587B0039002910192039B022B07DCDE
:100FC00002F046FD02461D2313604FF0FF3326E07A
:100FD000039B033B144A52F823300593059B002BD7
:100FE00007D102F035FD0246092313604FF0FF33AD
:100FF00015E0059B1B6810331B6805980299019A40
:1010000098470490049B002B08DA02F021FD024669
:10101000049B5B4213604FF0FF3300E0049B1846D3
:1010200007B05DF804FB00BF200B002010B485B0B2
:1010300001901B4B1B680393194B1A68019B1344C7
:101040000293EFF308831C4623461A46029B9A42FA
:1010500094BF01230023DBB2002B05D0114B0C22DF
:101060001A604FF0FF3315E00F4B1B68002B0DD0BB
:101070000E4B1A680C4B1B681A44029B9A4205D807
:10108000084B0C221A604FF0FF3303E0044A029B26
:101090001360039B184605B05DF8044B704700BF12
:1010A0009C010020680F00201C0B0020180B002062
:1010B00000B583B00190094B1B689B68184602F08D
:1010C000CFFD064B1B68DB68184602F0C9FD019B8B
:1010D000002B01D0FFF748FDFEE700BFD005002040
:1010E00084B00390029101920123184604B0704726
:1010F00000B583B001900198FFF7DAFF03B05DF807
:1011000004FB00BF82B001900123184602B0704773
:1011100082B0019002B0704782B0019002B0704777
:1011200000B583B001900198FFF7F2FF03B05DF8BE
:1011300004FB00BF00B583B001900198FFF7ECFFFE
:1011400003B05DF804FB00BF704700BF704700BFED
:1011500084B00F4B9B6802934FF000530193002320
:1011600003930CE0039B9B00019A1344039A9200A3
:1011700002990A4412681A60039B01330393039B8C
:10118000642BEFDD024B4FF000529A6004B07047C1
:1011900000ED00E008B5FFF7DBFF02F0F5F8FFF720
:1011A000D5FF08BD08B5FFF7CFFFFFF779F8034675
:1011B000184608BD00B583B00190019B4FF47A72C8
:1011C00002FB03F3184600F003F803B05DF804FBDC
:1011D00000B585B00190FFF751FC03900398FFF72D
:1011E0002DFC029000BF0398FFF728FC0246029BEB
:1011F000D21A019B9A42F6D305B05DF804FB00BFFA
:10120000104A104B1B6843F0010313600D4B002282
:101210009A600C4A0B4B1B6823F0847323F48033D1
:101220001360084B084A5A60064A064B1B6823F4B1
:1012300080231360034B0022DA60044B4FF00062FE
:101240009A607047003802401030002400ED00E042
:1012500008B5012000F00AF80346002B05D100F084
:101260006BF80346002B00D1FEE708BD00B597B030
:1012700003468DF80730002304932D4A2C4B1B6C3A
:1012800043F0805313642A4B1B6C03F08053049388
:10129000049B00230393274A264B1B6823F44043F7
:1012A00043F400431360234B1B6803F44043039350
:1012B000039B01230A939DF80730002B03D14FF4C1
:1012C00080330B9302E04FF4A0230B93022310937F
:1012D0004FF480031193082312934FF4A8731393D0
:1012E00004231493072315930AAB184600F042FA1F
:1012F0000346002B01D0002315E00F2305930223A2
:101300000693002307934FF4805308930023099317
:1013100005AB1846022100F085FC0346002B01D0E6
:10132000002300E00123184617B05DF804FB00BF5E
:10133000003802400070004000B595B000230293D1
:10134000294A294B1B6C43F080531364264B1B6CBA
:1013500003F080530293029B00230193234A234B03
:101360001B6823F4404343F4004313601F4B1B6886
:1013700003F440430193019B0323089301230B9340
:101380000023099310230C9302230E9300230F9341
:10139000102310934FF4A87311930423129307237F
:1013A000139308AB184600F0E5F90346002B01D073
:1013B000002315E00F2303930223049300230593D6
:1013C0004FF4805306930023079303AB1846022182
:1013D00000F028FC0346002B01D0002300E001238D
:1013E000184615B05DF804FB00380240007000405C
:1013F000DFF820D0002103E0074B5B584350043155
:101400000648074B42189A42F6D3FFF7F9FEFEF75B
:1014100013FF704700800120688F000898010020AA
:101420002C0A0020FEE7000008B50D4A0C4B1B6893
:1014300043F4007313600A4A094B1B6843F480634A
:101440001360074A064B1B6843F4807313600F2038
:1014500001F010FF00F006F80023184608BD00BF99
:10146000003C0240704700BF024B1B680133014A39
:10147000136070475C0C0020014B1B6818467047D6
:101480005C0C002088B0019000910023059300239C
:101490000493002306930023079355E1079B012241
:1014A00002FA03F30593009B1A68059B134004930B
:1014B000049A059B9A4240F04481009B5B68022B92
:1014C00003D0009B5B68122B22D1079BDA08019B9B
:1014D000083253F822300693079B03F007039B0062
:1014E0001A460F239340DB43069A13400693009B52
:1014F0001B69079A02F0070292009340069A134371
:101500000693079BDA08019B0832069943F82210DC
:10151000019B1B680693079B5B001A4603239340BD
:10152000DB43069A13400693009B5B6803F00303BA
:10153000079A52009340069A13430693019B069A1A
:101540001A60009B5B68012B0BD0009B5B68022B31
:1015500007D0009B5B68112B03D0009B5B68122BAC
:101560002FD1019B9B680693079B5B001A460323C0
:101570009340DB43069A13400693009BDB68079A6F
:1015800052009340069A13430693019B069A9A6071
:10159000019B5B680693079B012202FA03F3DB437E
:1015A000069A13400693009B5B6803F010031A0928
:1015B000079B02FA03F3069A13430693019B069ACC
:1015C0005A60019BDB680693079B5B001A46032366
:1015D0009340DB43069A13400693009B9B68079A4F
:1015E00052009340069A13430693019B069ADA60D1
:1015F000009B5B6803F08053002B00F0A280002367
:101600000393544A534B5B6C43F480435364514BF4
:101610005B6C03F480430393039B4F4A079B9B0837
:10162000023352F823300693079B03F003039B0019
:101630001A460F239340DB43069A13400693019BFF
:10164000464A934219D0019B454A934213D0019BCD
:10165000444A93420DD0019B434A934207D0019BD9
:10166000424A934201D1042308E0072306E0032302
:1016700004E0022302E0012300E00023079A02F0C5
:10168000030292009340069A134306933249079B44
:101690009B080233069A41F82320354B1B680693BA
:1016A000049BDB43069A13400693009B5B6803F49C
:1016B0008033002B03D0069A049B134306932C4AD5
:1016C000069B13602A4B5B680693049BDB43069AD8
:1016D00013400693009B5B6803F40033002B03D098
:1016E000069A049B13430693214A069B5360204BA2
:1016F0009B680693049BDB43069A13400693009B6A
:101700005B6803F48013002B03D0069A049B1343F9
:101710000693174A069B9360154BDB680693049B60
:10172000DB43069A13400693009B5B6803F40013A7
:10173000002B03D0069A049B134306930C4A069B86
:10174000D360079B01330793079B0F2B7FF6A6AE51
:1017500008B07047003802400038014000000240E5
:101760000004024000080240000C02400010024049
:10177000003C014000B58FB0019000230D93019B08
:101780001B6803F00103002B73D0A44B9B6803F08C
:101790000C03042B0BD0A14B9B6803F00C03082B0C
:1017A00012D19E4B5B6803F48003002B0CD09B4B43
:1017B0001B6803F40033002B05D0019B5B68002BF2
:1017C00001D1012324E254E0019B5B68B3F5803F23
:1017D00006D1924A914B1B6843F4803313601DE09D
:1017E000019B5B68B3F5A02F0CD18C4A8B4B1B6817
:1017F00043F480231360894A884B1B6843F4803389
:1018000013600BE0854A854B1B6823F4803313601B
:10181000824A824B1B6823F480231360019B5B6820
:10182000002B13D0FFF728FE0D9008E0FFF724FEF1
:1018300002460D9BD31A642B01D90323E8E1774BB1
:101840001B6803F40033002BF0D012E0FFF714FE06
:101850000D9008E0FFF710FE02460D9BD31A642B93
:1018600001D90323D4E16D4B1B6803F40033002B33
:10187000F0D1019B1B6803F00203002B77D0674B6C
:101880009B6803F00C03002B0BD0644B9B6803F0A8
:101890000C03082B26D1614B5B6803F48003002BFB
:1018A00020D15E4B1B6803F00203002B05D0019B87
:1018B000DB68012B01D00123AAE15848574B1B6874
:1018C00023F0F802019B1969F8230C930C9B93FAFF
:1018D000A3F30B930B9BB3FA83F301FA03F31343C4
:1018E000036044E0019BDB68002B2AD04C4B0122B3
:1018F0001A60FFF7C1FD0D9008E0FFF7BDFD02463D
:101900000D9BD31A022B01D9032381E1434B1B68A2
:1019100003F00203002BF0D04048404B1B6823F03B
:10192000F802019B1969F8230A930A9B93FAA3F31F
:101930000993099BB3FA83F301FA03F3134303609A
:1019400015E0374B00221A60FFF796FD0D9008E076
:10195000FFF792FD02460D9BD31A022B01D90323F8
:1019600056E12E4B1B6803F00203002BF0D1019BC4
:101970001B6803F00803002B30D0019B5B69002B30
:1019800016D0284B01221A60FFF776FD0D9008E073
:10199000FFF772FD02460D9BD31A022B01D90323D8
:1019A00036E11E4B5B6F03F00203002BF0D015E015
:1019B0001C4B00221A60FFF75FFD0D9008E0FFF757
:1019C0005BFD02460D9BD31A022B01D903231FE1B5
:1019D000124B5B6F03F00203002BF0D1019B1B68DD
:1019E00003F00403002B00F08780002302930B4ACE
:1019F0000A4B1B6C43F080531364084B1B6C03F0C1
:101A000080530293029B084A074B1B6843F4807380
:101A10001360FFF731FD0D9011E000BF0038024068
:101A200000004742800E474200700040FFF724FD4F
:101A300002460D9BD31A022B01D90323E8E0764B13
:101A40001B6803F48073002BF0D0019B9B68012B73
:101A500006D1724A714B1B6F43F0010313671CE000
:101A6000019B9B68052B0CD16C4A6C4B1B6F43F0A0
:101A700004031367694A694B1B6F43F00103136743
:101A80000BE0664A654B1B6F23F001031367634A43
:101A9000624B1B6F23F004031367019B9B68002BB1
:101AA00015D0FFF7E9FC0D900AE0FFF7E5FC0246D0
:101AB0000D9BD31A41F28832934201D90323A7E048
:101AC000564B1B6F03F00203002BEED014E0FFF720
:101AD000D3FC0D900AE0FFF7CFFC02460D9BD31A12
:101AE00041F28832934201D9032391E04B4B1B6FA3
:101AF00003F00203002BEED1019B9B69002B00F049
:101B00008680464B9B6803F00C03082B7DD0019B1D
:101B10009B69022B62D1424B00221A60FFF7ACFC9A
:101B20000D9008E0FFF7A8FC02460D9BD31A022B8C
:101B300001D903236CE0394B1B6803F00073002BC1
:101B4000F0D13648019BDA69019B1B6A1A43019B5D
:101B5000596A47F6C0730893089B93FAA3F3079357
:101B6000079BB3FA83F301FA03F31A43019B9B6AC1
:101B70005B08591E4FF440330693069B93FAA3F378
:101B80000593059BB3FA83F301FA03F31A43019B10
:101B9000D96A4FF070630493049B93FAA3F3039301
:101BA000039BB3FA83F301FA03F3134343601C4B23
:101BB00001221A60FFF760FC0D9008E0FFF75CFC63
:101BC00002460D9BD31A022B01D9032320E0134BAD
:101BD0001B6803F00073002BF0D018E0104B0022BC
:101BE0001A60FFF749FC0D9008E0FFF745FC02463C
:101BF0000D9BD31A022B01D9032309E0074B1B6865
:101C000003F00073002BF0D101E0012300E000237A
:101C100018460FB05DF804FB007000400038024029
:101C20006000474200B587B0019000910023059302
:101C3000824B1B6803F00F02009B9A420CD27F4B31
:101C4000009AD2B21A707D4B1B6803F00F02009B02
:101C50009A4201D00123ECE0019B1B6803F00203D0
:101C6000002B08D07649764B9B6823F0F002019B4D
:101C70009B6813438B60019B1B6803F00103002BDF
:101C800000F08880019B5B68012B07D16C4B1B68BF
:101C900003F40033002B1AD10123CAE0019B5B68D7
:101CA000022B03D0019B5B68032B08D1644B1B689C
:101CB00003F00073002B01D10123BAE007E0604B71
:101CC0001B6803F00203002B01D10123B1E05C4942
:101CD0005B4B9B6823F00302019B5B6813438B60A3
:101CE000FFF7CAFB0590019B5B68012B12D10AE04C
:101CF000FFF7C2FB0246059BD31A41F2883293429A
:101D000001D9032395E04E4B9B6803F00C03042B91
:101D1000EED13FE0019B5B68022B12D10AE0FFF796
:101D2000ABFB0246059BD31A41F28832934201D99C
:101D300003237EE0424B9B6803F00C03082BEED19B
:101D400028E0019B5B68032B12D10AE0FFF794FBAC
:101D50000246059BD31A41F28832934201D90323EC
:101D600067E0374B9B6803F00C030C2BEED111E0BE
:101D70000AE0FFF781FB0246059BD31A41F2883245
:101D8000934201D9032354E02D4B9B6803F00C03CD
:101D9000002BEED1294B1B6803F00F02009B9A42E7
:101DA0000CD9264B009AD2B21A70244B1B6803F050
:101DB0000F02009B9A4201D001233AE0019B1B686D
:101DC00003F00403002B08D01D491D4B9B6823F42E
:101DD000E052019BDB6813438B60019B1B6803F09F
:101DE0000803002B09D01649154B9B6823F4604269
:101DF000019B1B69DB0013438B6000F027F8014651
:101E00000F4B9B6803F0F002F0230493049B93FABA
:101E1000A3F30393039BB3FA83F322FA03F3094A70
:101E2000D35C21FA03F3084A13600F2001F022FA71
:101E30000023184607B05DF804FB00BF003C0240D9
:101E400000380240548B0008A00100208AB0002313
:101E50000793002309930023069300230893354B2F
:101E60009B6803F00C03042B06D0082B07D0002B33
:101E700058D1314B089358E0304B089355E02D4B27
:101E80005B6803F03F0307932A4B5B6803F480030E
:101E9000002B17D0294A079BB2FBF3F2254B596858
:101EA00047F6C0730B4047F6C0710591059991FA4A
:101EB000A1F104910499B1FA81F1CB4003FB02F343
:101EC000099316E01C4A079BB2FBF3F2194B5968C1
:101ED00047F6C0730B4047F6C0710391039991FA1E
:101EE000A1F102910299B1FA81F1CB4003FB02F317
:101EF0000993104B5B6803F440324FF44033019375
:101F0000019B93FAA3F30093009BB3FA83F322FAA5
:101F100003F301335B000693099A069BB2FBF3F3CC
:101F2000089302E0044B089300BF089B18460AB0D0
:101F3000704700BF003802400024F40000127A000D
:101F4000014B1B6818467047A001002000B583B004
:101F5000FFF7F6FF01460C4B9B6803F4E0524FF489
:101F6000E0530193019B93FAA3F30093009BB3FA10
:101F700083F322FA03F3054AD35C21FA03F31846EC
:101F800003B05DF804FB00BF00380240648B00081A
:101F900000B583B0FFF7D4FF01460C4B9B6803F4F8
:101FA00060424FF460430193019B93FAA3F30093C3
:101FB000009BB3FA83F322FA03F3054AD35C21FAB8
:101FC00003F3184603B05DF804FB00BF003802407D
:101FD000648B000882B001900091019B0F221A606F
:101FE000104B9B6803F00302019B5A600D4B9B68EA
:101FF00003F0F002019B9A600A4B9B6803F4E052E5
:10200000019BDA60074B9B6803F46043DA08019B8D
:102010001A61054B1B6803F00F02009B1A6002B0A7
:10202000704700BF00380240003C024000B583B05A
:102030000190019B002B01D101231DE0019B93F82E
:102040003930DBB2002B06D1019B002283F8382007
:10205000019800F015F8019B022283F83920019BBA
:102060001A68019B04331046194600F035F8019BAD
:10207000012283F839200023184603B05DF804FBE1
:1020800082B0019002B0704700B583B0019000911A
:10209000019B1B6818460099012200F09BF8019BE8
:1020A0001B680C4A934207D1019B1B68019A126876
:1020B000526C42F400425A64019B1B68019A1268F8
:1020C000126842F001021A600023184603B05DF85E
:1020D00004FB00BF0000014084B001900091002388
:1020E0000393019B1B680393019B334A93420FD0D8
:1020F000019BB3F1804F0BD0019B304A934207D034
:10210000019B2F4A934203D0019B2E4A934201D157
:10211000012300E00023002B08D0039B23F0700371
:102120000393009B5B68039A13430393019B224A2A
:1021300093421BD0019BB3F1804F17D0019B1F4AE4
:10214000934213D0019B1E4A93420FD0019B1D4A1C
:1021500093420BD0019B1C4A934207D0019B1B4A20
:10216000934203D0019B1A4A934201D1012300E01C
:102170000023002B08D0039B23F440730393009BA0
:10218000DB68039A13430393019B039A1A60009B35
:102190009A68019BDA62009B1A68019B9A62019B14
:1021A000054A934203D1009B1A69019B1A63019B64
:1021B00001225A6104B07047000001400004004051
:1021C00000080040000C0040004001400044014075
:1021D0000048014086B003900291019200230593CC
:1021E000029B012202FA03F30593039B1A6A059BE3
:1021F000DB431A40039B1A62039B1A6A029B0199F4
:1022000001FA03F31A43039B1A6206B0704700BF3A
:1022100000B583B00190019B002B01D101233FE069
:10222000019B93F83930DBB2002B06D1019B0022D1
:1022300083F83820019800F037F8019B242283F8B6
:102240003920019B1B68019A1268D26822F400525F
:10225000DA60019800F02CF8019B1B68019A126863
:10226000126922F490421A61019B1B68019A12685C
:10227000526922F02A025A61019B1B68019A126876
:10228000D26842F40052DA60019B0022DA63019BBB
:10229000202283F83920019B202283F83A20002352
:1022A000184603B05DF804FB82B0019002B070479D
:1022B00070B584B0019000230393019B1B681B69D8
:1022C0000393039B23F440530393019BDB68039A1E
:1022D00013430393019B1B68039A1A61019B1B68BC
:1022E000DB680393039B23F4164323F00C0303934F
:1022F000019B9A68019B1B691A43019B5B691A4306
:10230000019BDB691343039A13430393019B1B68EF
:10231000039ADA60019B1B685B690393039B23F4B8
:1023200040730393019B9B69039A13430393019B9F
:102330001B68039A5A61019BDB69B3F5004F40F0BB
:10234000E480019B1B68AC4A934204D0019B1B684C
:10235000AA4A93426CD1019B1C68FFF719FE024602
:1023600013469B0013449A001A44019B5B685B0070
:10237000B2FBF3F3A24AA2FB03235B091D01FFF7A3
:1023800007FE024613469B0013449A001A44019B21
:102390005B685B00B2FBF3F6FFF7FAFD02461346FB
:1023A0009B0013449A001A44019B5B685B00B2FBDC
:1023B000F3F3934AA2FB03235B09642202FB03F3BA
:1023C000F31ADB0032338E4AA2FB03235B0903F0CE
:1023D000F8035B001D44FFF7DBFD024613469B003C
:1023E00013449A001A44019B5B685B00B2FBF3F64E
:1023F000FFF7CEFD024613469B0013449A001A4491
:10240000019B5B685B00B2FBF3F37D4AA2FB0323F5
:102410005B09642202FB03F3F31ADB003233784AD0
:10242000A2FB03235B0903F007032B44A36054E1E1
:10243000019B1C68FFF78AFD024613469B0013446C
:102440009A001A44019B5B685B00B2FBF3F36C4A91
:10245000A2FB03235B091D01FFF778FD024613462B
:102460009B0013449A001A44019B5B685B00B2FB1B
:10247000F3F6FFF76BFD024613469B0013449A00E8
:102480001A44019B5B685B00B2FBF3F35C4AA2FB5E
:1024900003235B09642202FB03F3F31ADB003233EC
:1024A000574AA2FB03235B0903F0F8035B001D44BA
:1024B000FFF74CFD024613469B0013449A001A4452
:1024C000019B5B685B00B2FBF3F6FFF73FFD024642
:1024D00013469B0013449A001A44019B5B685B00FF
:1024E000B2FBF3F3464AA2FB03235B09642202FB1F
:1024F00003F3F31ADB003233414AA2FB03235B09E7
:1025000003F007032B44A360E7E0019B1B683A4AF2
:10251000934204D0019B1B68384A934272D1019BBD
:102520001C68FFF735FD024613469B0013449A00D2
:102530001A44019B5B689B00B2FBF3F3304AA2FB99
:1025400003235B091D01FFF723FD024613469B0091
:1025500013449A001A44019B5B689B00B2FBF3F69C
:10256000FFF716FD024613469B0013449A001A44D7
:10257000019B5B689B00B2FBF3F3214AA2FB0323A0
:102580005B09642202FB03F3F31A1B0132331C4A7A
:10259000A2FB03235B0903F0F0031D44FFF7F8FCE3
:1025A000024613469B0013449A001A44019B5B6841
:1025B0009B00B2FBF3F6FFF7EBFC024613469B00D1
:1025C00013449A001A44019B5B689B00B2FBF3F32F
:1025D0000B4AA2FB03235B09642202FB03F3F31AF9
:1025E0001B013233064AA2FB03235B0903F00F03EE
:1025F0002B44A36071E000BF0010014000140140B3
:102600001F85EB51019B1C68FFF7A0FC0246134697
:102610009B0013449A001A44019B5B689B00B2FB29
:10262000F3F32F4AA2FB03235B091D01FFF78EFC86
:10263000024613469B0013449A001A44019B5B68B0
:102640009B00B2FBF3F6FFF781FC024613469B00AA
:1026500013449A001A44019B5B689B00B2FBF3F39E
:102660001F4AA2FB03235B09642202FB03F3F31A54
:102670001B0132331A4AA2FB03235B0903F0F00368
:102680001D44FFF763FC024613469B0013449A0067
:102690001A44019B5B689B00B2FBF3F6FFF756FC04
:1026A000024613469B0013449A001A44019B5B6840
:1026B0009B00B2FBF3F30A4AA2FB03235B096422EB
:1026C00002FB03F3F31A1B013233054AA2FB032377
:1026D0005B0903F00F032B44A36004B070BD00BF7F
:1026E0001F85EB5100B583B00190019B002B01D1F8
:1026F000012333E0019B93F83D30DBB2002B06D180
:10270000019B002283F83C20019800F02BF8019BEC
:10271000022283F83D20019800F04EF9019B1B68CE
:10272000019A1268126922F480421A61019B1B68A7
:10273000019A1268526922F02A025A61019B1B68B1
:10274000019A1268D26842F40052DA60019B0022BA
:102750001A64019B012283F83D200023184603B030
:102760005DF804FB82B0019002B0704700B589B0FB
:102770000590049102931346ADF80E3000230793A1
:10278000059B93F83D30DBB2012B40F0B780049BF2
:10279000002B03D0BDF80E30002B01D10123AEE099
:1027A000059B93F83C30012B01D10223A7E0059B48
:1027B000012283F83C20059B00221A64059B2222FB
:1027C00083F83D20FEF758FE0790059BBDF80E20CC
:1027D0001A86059BBDF80E205A867FE0059B5B8E0E
:1027E0009BB2013B9AB2059B5A86059B9B68B3F549
:1027F000805F3DD1029B0093059880210022079BBA
:1028000000F082F80346002B01D0032377E0059BFC
:102810001B6840F2FF125A60029B0093059820212A
:102820000022079B00F070F80346002B01D0032321
:1028300065E0049B0693059B1B69002B0CD1059B4F
:102840001B685B689BB2C3F308039AB2069B1A80AD
:10285000049B0233049341E0059B1B685B689BB2B9
:10286000DBB29AB2069B1A80049B0133049335E0D5
:10287000029B0093059880210022079B00F044F8FA
:102880000346002B01D0032339E0059B1B68FF2280
:102890005A60029B0093059820210022079B00F0BC
:1028A00033F80346002B01D0032328E0059B1B6966
:1028B000002B08D1049B5A1C0492059A1268526896
:1028C000D2B21A700AE0049B5A1C0492059A12684C
:1028D0005268D2B202F07F02D2B21A70059B5B8EB0
:1028E0009BB2002B7FF47AAF059B012283F83D2039
:1028F000059B002283F83C20002300E002231846B9
:1029000009B05DF804FB00BF00B585B003900291EB
:10291000009313468DF8073038E0069BB3F1FF3F74
:1029200034D0069B002B07D0FEF7A6FD0246009B85
:10293000D21A069B9A4229D9039B1B68039A1268F4
:10294000D26822F08002DA60039B1B68039A126847
:10295000D26822F02002DA60039B1B68039A126897
:10296000D26822F48072DA60039B1B68039A1268B3
:10297000526922F001025A61039B012283F83D2033
:10298000039B002283F83C20032310E0039B1B6879
:102990001A68029B1A40029B9A420CBF0123002333
:1029A000DBB21A469DF807309A42B6D0002318468B
:1029B00005B05DF804FB00BF70B584B00190002342
:1029C0000393019B1B68019A1268D26822F00C02E3
:1029D000DA60019B1B681B690393039B23F47C5300
:1029E0000393019B9A69019BDB691A43019B1B6A54
:1029F0001A43019BDB681A43039B134343F40063B0
:102A00000393019B1B68039A1A61019B1B68DB6897
:102A10000393039B23F4164323F00C030393019BBE
:102A20009A68019B1B691A43019B5B691A43039BCC
:102A3000134343F400430393019B1B68039ADA603A
:102A4000019B1B68019A1268526922F440725A6114
:102A5000019B1B683F4A934204D0019B1B683E4A7E
:102A6000934232D1FFF794FA0290019B1968029ABF
:102A700013469B0013449A001A44019B5B685B0059
:102A8000B2FBF3F3354AA2FB03235B091801029A58
:102A900013469B0013449A001A44019B5B685B0039
:102AA000B2FBF3F22D4BA3FB02435B09642404FB4E
:102AB00003F3D31A1B013233284AA2FB03235B0919
:102AC00003F00F0303438B6042E0FFF761FA0290CB
:102AD000019B1C68FFF73AFA024613469B00134419
:102AE0009A001A44019B5B685B00B2FBF3F31B4A3C
:102AF000A2FB03235B091D01FFF728FA02461346D8
:102B00009B0013449A001A44019B5B685B00B2FB74
:102B1000F3F6FFF71BFA024613469B0013449A0094
:102B20001A44019B5B685B00B2FBF3F30B4AA2FB08
:102B300003235B09642202FB03F3F31A1B01323304
:102B4000064AA2FB03235B0903F00F032B43A36098
:102B500004B070BD00100140001401401F85EB510E
:102B600086B00023049300230593022303930023DC
:102B7000029302230193304B9B6803F00C030493F0
:102B8000049B042B07D0082B09D0002B3FD12B4BE3
:102B90002B4A1A603FE0294B2A4A1A603BE0264B39
:102BA0005B6803F480039B0D0293234B5B6803F087
:102BB0003F030193029B002B0DD0224A019BB2FBE5
:102BC000F3F21D4B596847F6C0730B409B0903FB9A
:102BD00002F305930CE01A4A019BB2FBF3F2164B89
:102BE000596847F6C0730B409B0903FB02F305933A
:102BF000114B5B6803F440331B0C01335B00039300
:102C0000059A039BB2FBF3F30C4A136003E00B4BF2
:102C10000B4A1A6000BF084B9B6803F0F0031B09C6
:102C2000094AD35C0493054B1A68049B22FA03F308
:102C3000024A136006B0704700380240A00100202D
:102C40000024F40000127A00548B000800B589B00B
:102C500001900B46ADF802301346ADF80030019BF1
:102C60000793BDF9023018466749FDF7A7FD0690A6
:102C7000BDF9003018466549FDF7A0FD059006989E
:102C80000599FDF75BFD0246079B1A60079B1B68D1
:102C9000B3F1FF3F04D15E485E493E22FDF73CFFA1
:102CA000079B1B685C4A934206D05C4A93423FD024
:102CB0005B4A93421ED059E05A4A5A4B5B6A43F032
:102CC00010035362574A574B5B6A23F01003536259
:102CD00000230493534A534B5B6C43F0100353643B
:102CE000504B5B6C03F010030493049B079B002282
:102CF0005A603BE04B4A4B4B1B6A43F40033136270
:102D0000484A484B1B6A23F40033136200230393A1
:102D1000444A444B1B6C43F400331364414B1B6C1B
:102D200003F400330393039B079B01225A601DE0C9
:102D30003C4A3C4B5B6A43F020035362394A394BAF
:102D40005B6A23F02003536200230293354A354B1C
:102D50005B6C43F020035364324B5B6C03F0200345
:102D60000293029B079B05225A6000BFBDF9023007
:102D700018462549FDF7AEFCBDF900301846234939
:102D8000FDF7A8FCBDF90230B3F1FF3F05D0BDF956
:102D900002301846012100F0CFFCBDF90030B3F13C
:102DA000FF3F05D0BDF900301846012100F0C4FCFA
:102DB000079B4FF416529A60079B0022DA60079B2C
:102DC00000221A61079B00225A61079B00221A62A7
:102DD000079BBDF802201A83079BBDF800205A8389
:102DE000019800F01BFD079B1B680D4A934207D119
:102DF0000D4B01221A600D4801994C2201F034FC60
:102E000009B05DF804FB00BFC48A00080C8B000801
:102E10006C8B0008888B00080010014000140140F2
:102E20000044004000380240200C0020E00E00204A
:102E300000B585B001900091019B0393009A039B1C
:102E40009A60019800F0EAFC05B05DF804FB00BF51
:102E500000B585B00190019B0393039B5B689B01C8
:102E6000094A1344029300BF019800F031FD034664
:102E7000002BF9D0029B1B685B68C3F3080318465C
:102E800005B05DF804FB00BF600C002000B585B004
:102E900001900091019B0393039B5B689B01094A8E
:102EA0001344029300BF019800F03EFD0346002B3F
:102EB000F9D0029B1B68009AC2F308025A6005B061
:102EC0005DF804FB600C002088B003900291019231
:102ED000039B1A68029B0793079B93FAA3F306933D
:102EE000069BB3FA83F35B00194603238B40DB4355
:102EF0001A40029B0593059B93FAA3F30493049B4A
:102F0000B3FA83F35B001946019B8B401A43039B82
:102F10001A6008B0704700BF00B58BB00190002365
:102F20000993019B072B79D801A252F823F000BF27
:102F3000512F0008732F0008952F0008B72F0008A5
:102F4000D92F00081D3000081D300008FB2F000895
:102F5000374B099300230893364A364B1B6B43F0DB
:102F600001031363334B1B6B03F001030893089BAE
:102F700058E0314B0993002307932E4A2D4B1B6BCE
:102F800043F0020313632B4B1B6B03F00203079305
:102F9000079B47E0294B099300230693254A254BBD
:102FA0001B6B43F004031363224B1B6B03F00403FE
:102FB0000693069B36E0224B0993002305931D4A96
:102FC0001C4B1B6B43F0080313631A4B1B6B03F082
:102FD00008030593059B25E01A4B099300230493EE
:102FE000144A144B1B6B43F010031363114B1B6B00
:102FF00003F010030493049B14E0134B0993002384
:1030000003930C4A0B4B1B6B43F080031363094B78
:103010001B6B03F080030393039B03E00B48FDF756
:10302000C1FE00BF099B18460BB05DF804FB00BF52
:103030000000024000380240000402400008024044
:10304000000C024000100240001C02403C8C0008B2
:1030500000B583B00346ADF80630BDF90630B3F1D4
:10306000FF3F04D10A480B497422FDF755FDBDF915
:1030700006301846002100F0D1FABDF8063003F002
:103080000F03012202FA03F3184603B05DF804FBB4
:10309000608C0008748C000800B585B001900B4668
:1030A000ADF80230019BBDF802201A82BDF9023052
:1030B000B3F1FF3F00D12DE0BDF902301B0903F051
:1030C0000F0303930398FFF727FF0290BDF9023027
:1030D0001846FFF7BDFF0246019B1A60019B029A4A
:1030E0005A61019B1B8A9BB203F00F030B4A52F8F3
:1030F0002320019B9A61029B03F11002019B5A60FD
:10310000029B03F11802019B9A60029B03F11802D3
:10311000019BDA6005B05DF804FB00BF988C0008E5
:1031200000B583B001900B468DF80330019B1B8ADC
:103130001AB29DF803301046194600F0FDFA03B0AC
:103140005DF804FB00B583B001900B468DF80330A9
:103150009DF80330002B09D1019B5A69019B9B69A3
:10316000104619460022FFF7AFFE08E0019B5A699E
:10317000019B9B69104619460122FFF7A5FE03B08B
:103180005DF804FB82B003468DF807309DF90730E7
:10319000002B0CDB07499DF907305B099DF80720E0
:1031A00002F01F02012000FA02F241F8232002B0CF
:1031B000704700BF00E100E084B0034600918DF845
:1031C0000730064B9B6803939DF9073010339B0033
:1031D000039A1344009A1A6004B0704700ED00E0AF
:1031E00000B583B0214B1B681B6903F00203002B61
:1031F0000DD01E4B1B68DB6803F00203002B06D0CA
:103200001A4B1B686FF002021A61FDF73DFC174B69
:103210001B681B6903F00403002B23D0134B1B68AE
:10322000DB6803F00403002B1CD0104B1B686FF00D
:1032300004021A610D4B1B685B6A01930C4B1B68FF
:10324000019AD31AB3F57A7F0CD3FEF70DF9074B29
:103250001B6834330433019A02F57A721A60044A07
:10326000019B136003B05DF804FB00BF2C0F00202E
:10327000240C002000B58BB0019005AA04AB1046C9
:103280001946FEF7A7FEFEF761FE034604930023EE
:103290000393374A364B1B6C43F008031364344BDB
:1032A0001B6C03F008030393039B314A304B1B6AEA
:1032B00043F0080313622E4A2D4B1B6A23F00803C8
:1032C00013622C4B2C4A1A602A4B4FF0FF32DA6003
:1032D000089B002B0AD1049B284AA2FB03239B0CCA
:1032E0009BB2013B1A46234B5A600AE0049B5B00E9
:1032F000224AA2FB03239B0C9BB2013B1A461D4BA7
:103300005A601C4B00221A611A4B00229A60194B1A
:1033100000225A611748FEF789FE194B32201946E0
:10332000FFF74AFF3220FFF72DFF12480021FEF77A
:10333000ABFE10480421FEF7A7FE0E4B1B685B6A2C
:10334000104A13600B4B1B68343304330D4A126868
:1033500002F57A721A60074B1B68064A1268D26837
:1033600042F00402DA60002318460BB05DF804FB5B
:10337000003802402C0F0020000C004083DE1B436D
:10338000E1310008240C002008B5FFF7E9FBFEF747
:103390004BF8FDF75DFFFFF7E3FB08BD88B0039036
:1033A00002910192039B1A6A029B0793079B93FA6F
:1033B000A3F30693069BB3FA83F39B0019460F23EE
:1033C0008B40DB431A40029B0593059B93FAA3F3C2
:1033D0000493049BB3FA83F39B001946019B8B4033
:1033E0001A43039B1A6208B0704700BF88B003906D
:1033F00002910192039B5A6A029B1B0A0793079B47
:1034000093FAA3F30693069BB3FA83F39B00194642
:103410000F238B40DB431A40029B1B0A0593059B3D
:1034200093FAA3F30493049BB3FA83F39B00194626
:10343000019B8B401A43039B5A6208B0704700BF40
:1034400088B0039002910192039B1A68029B079334
:10345000079B93FAA3F30693069BB3FA83F35B00EF
:10346000194603238B40DB431A40029B0593059BBF
:1034700093FAA3F30493049BB3FA83F35B00194616
:10348000019B8B401A43039B1A6008B0704700BF32
:1034900082B001900091019B1968009B009A02FB89
:1034A00003F213465B00134401EA0302009B0099F8
:1034B00001FB03F3B2FBF3F3184602B0704700BF01
:1034C00088B0039002910192039BDA68029B0793F4
:1034D000079B93FAA3F30693069BB3FA83F35B006F
:1034E000194603238B40DB431A40029B0593059B3F
:1034F00093FAA3F30493049BB3FA83F35B00194696
:10350000019B8B401A43039BDA6008B0704700BFF1
:1035100084B0039002910192039B5A68029BDB43A3
:103520001A40029B019901FB03F31A43039B5A6063
:1035300004B0704788B0039002910192039B9A688F
:10354000029B0793079B93FAA3F30693069BB3FA98
:1035500083F35B00194603238B40DB431A40029B35
:103560000593059B93FAA3F30493049BB3FA83F3A7
:103570005B001946019B8B401A43039B9A6008B07D
:10358000704700BF82B00346ADF8063002B0704706
:1035900000B585B0039002910192019B012B02D0EE
:1035A000022B06D00BE0039802990122FFF788FF57
:1035B0000BE0039802990222FFF782FF05E00398CF
:1035C00002990022FFF77CFF00BF05B05DF804FB05
:1035D00000B587B003900B460192ADF80A30BDF8F4
:1035E0000A3003F00F030C4A52F823300593BDF85C
:1035F0000A3003F00F03072B05D903980599019AA8
:10360000FFF7F4FE04E003980599019AFFF7C6FE60
:1036100007B05DF804FB00BF988C000800B589B0C6
:1036200003460091ADF80630BDF90630B3F1FF3F17
:1036300004D13D483D493E22FDF76EFA009B03F060
:1036400007030693009B1B1203F00F030593BDF9BC
:1036500006301B0903F00F030493BDF8063003F096
:103660000F03334A52F8233003930023079304983F
:10367000FFF752FC0290029803990222FFF75AFFCB
:10368000069B032B1DD801A252F823F09D3600089B
:10369000A3360008A9360008BD36000800230793AA
:1036A00015E00123079312E002230793BDF90630CA
:1036B00002981946059AFFF78BFF08E0032307934A
:1036C00005E01C4819496722FDF726FA00BF029859
:1036D0000399079AFFF7B4FE069B012B02D0069BC5
:1036E000022B0FD1009B03F00803002B05D002989A
:1036F00003990122FFF70CFF04E0029803990022CE
:10370000FFF706FF009B1B1103F0030302980399C8
:103710001A46FFF73DFFBDF906301846FFF732FFA6
:1037200009B05DF804FB00BFD88C0008EC8C0008E1
:10373000988C00080C8D000800B587B003460A4637
:10374000ADF8063013468DF80530BDF90630B3F1FB
:10375000FF3F04D12E482F498822FDF7DDF9BDF93E
:1037600006301B0903F00F030593BDF8063003F084
:103770000F03294A52F8233004930598FFF7CCFB36
:10378000039003980499FFF783FE0290029B012B9C
:1037900002D0029B022B16D19DF80530042B07D0D6
:1037A0009DF80530032B03D09DF80530052B05D17E
:1037B000039804990122FFF7ABFE04E003980499F3
:1037C0000022FFF7A5FE9DF80530032B03D09DF8DE
:1037D0000530012B05D1039804990122FFF7D8FE8B
:1037E00012E09DF80530052B03D09DF80530022B23
:1037F00005D1039804990222FFF7CAFE04E003985A
:1038000004990022FFF7C4FE07B05DF804FB00BF77
:10381000D88C0008EC8C0008988C000800B585B0A6
:103820000190019B0393039B5B689B01264A134411
:103830000293039B1B681A46029B1A60039B9A68BB
:10384000029B5A60039BDA68029B9A60039B1A6989
:10385000029BDA60039B5A69029B1A61039B1A6AF6
:10386000029B9A61029B0022DA61029B0022DA84A9
:10387000029B00229A84029B0022DA85029B00228E
:103880009A85039B5B8B1BB2B3F1FF3F03D1029B75
:1038900008225A610CE0039B1B8B1BB2B3F1FF3F64
:1038A00003D1029B04225A6102E0029B0C225A615E
:1038B0000298FEF7ADFC0346002B02D00348FDF74B
:1038C00071FA05B05DF804FB600C0020108D000853
:1038D00086B00190019B0593059B5B689B01114A93
:1038E00013440493049B1B681B6803F00803002B1C
:1038F0000AD000230393049B1B681B680393049B5B
:103900001B685B680393039B049B1B681B6803F0A5
:103910002003002B14BF01230023DBB2184606B09E
:10392000704700BF600C002084B00190019B03939E
:10393000039B5B689B01084A13440293029B1B682C
:103940001B6803F08003002B14BF01230023DBB2AC
:10395000184604B0704700BF600C002082B0019090
:10396000019B5B6943F00202019B5A6102B0704700
:10397000704700BF014B5B6A18467047000C00405F
:1039800082B001900A4B1B68094A1268D26822F083
:103990000202DA60064B1B68019A5A63044B1B68EB
:1039A000034A1268D26842F00202DA6002B070473D
:1039B0002C0F002008B5034B1B681846FFF7CEFFFD
:1039C00008BD00BF2C0F0020044B1B68034A12687F
:1039D000D26822F00202DA60704700BF2C0F00208C
:1039E000024B1B686FF002021A6170472C0F002017
:1039F00010B502FB01F1FDF74FF8044668B150F82D
:103A0000042C22F00302043A242A18D8132A06D8D8
:103A1000034600221A605A609A60204610BD0023B7
:103A20001B2A036043600FD9242A8360C36005BF4B
:103A30000361436100F1100300F11803E9E700217D
:103A400000F010FF204610BD00F10803E1E700BFC1
:103A5000014B1868704700BFD005002000293DD0F9
:103A600070B505460C4608B1836B7BB3B4F90C30D6
:103A70000BB9002070BD2846214600F031F8E36AFA
:103A8000064633B12846E16998470028B8BF4FF091
:103A9000FF36A3891B061CD4216B41B104F14003FE
:103AA000994202D02846FDF719F800232363616C80
:103AB00021B12846FDF712F80023636400F066F98F
:103AC0000023A38100F064F9304670BD00F058F97E
:103AD000CCE728462169FDF701F8DDE700207047B3
:103AE0008B899AB22DE9F0410D46110780463CD4EE
:103AF0006A6843F40063002AAB8165DDAE6A002E7C
:103B00004BD09BB203F48052002192B2D8F800400F
:103B1000C8F80010002A5BD02A6D5F0705D56968D8
:103B20002B6B521A0BB1EB6BD21A4046E96900239A
:103B3000B047461C56D0AB892A692A6023F400633B
:103B40009BB200226A60DA04AB813BD4296BC8F8CF
:103B5000004011B305F14003994202D04046FCF702
:103B6000BDFF00202863BDE8F0812E69AEB12C684E
:103B70002E6091070CBF6B690023A41BAB600AE0A9
:103B8000324623466F6AE9694046B8470028A4EBED
:103B90000004064404DD002CF2DC0020BDE8F081C6
:103BA000AB8943F04003AB814FF0FF30BDE8F081BB
:103BB000AB892A69696023F400639BB2AB81DB04A3
:103BC0002A60C3D52865C1E7EA6B002A96DCE4E7E2
:103BD00001234046E969B047431C024619D0AB892E
:103BE000AE6A9AE7D8F800100029E1D01D2907D065
:103BF000162905D0AB8943F04003AB81BDE8F081C5
:103C0000AB892A692A6023F400630022AB816A60D1
:103C10009CE7D8F80030002BE1D01D2B07D0162BE5
:103C200005D0AB8943F04003AB81BDE8F081C8F813
:103C30000040B2E710B5044682B008B1836B53B1BF
:103C4000B1F90C0008B902B010BD204602B0BDE8C1
:103C50001040FFF745BF019100F092F80199EFE79E
:103C600020B1054B01461868FFF7E4BF034B044938
:103C7000186800F0CBB900BFD00500206C8D00089B
:103C8000353C0008014900F0C1B900BF5D3A0008A9
:103C90002DE9F04F354B4568C3630024074600F516
:103CA0003B7204230321C0F8E412C0F8E822C0F8F4
:103CB000E04283B02C606C60AC606C66EC812C617F
:103CC0006C61AC61AB81214605F15C00082200F01B
:103CD000C9FDBE68DFF898B0DFF898A0DFF89890CB
:103CE000DFF89880C5F820B001230922C5F824A088
:103CF000C5F82890C5F82C80ED612146F381B2818A
:103D000006F15C0034607460B460746634617461A0
:103D1000B4610822019300F0A5FDFD68F661122050
:103D20000222C6F820B0C6F824A0C6F82890C6F82B
:103D30002C802146A881EA812C606C60AC606C66A6
:103D40002C616C61AC6105F15C00082200F08AFD19
:103D5000019BED61C5F820B0C5F824A0C5F82890F6
:103D6000C5F82C80BB6303B0BDE8F08F853C00082C
:103D7000114D0008354D00086D4D00088D4D0008AF
:103D8000836B03B17047FFF783BF00BF704700BF6D
:103D9000704700BF38B5084B084DED1AAC1018BF7E
:103DA000ED1805D0013C55F8043D9847002CF9D199
:103DB000BDE8384004F0F0BD240A0020280A0020A5
:103DC000F8B5234F0C460646FDF7AAF9BB685D68B7
:103DD00025F00305291B01F6EF7121F47F6121F025
:103DE0000F01A1F58054B4F5805F07DB3046002158
:103DF00000F07CFFBB682B44984204D03046FDF7AE
:103E000099F90020F8BD3046614200F06FFF0130A3
:103E10000DD0104BBA6819682D1B45F001053046CE
:103E2000091B55601960FDF785F90120F8BD304682
:103E3000002100F05BFFBA68831A0F2BDEDD064C11
:103E40000449246843F00103001B53600860D5E770
:103E5000D4050020340C0020E009002000294ED0B9
:103E60002DE9F0410C468046FDF75AF954F8047CE0
:103E7000624927F00102A4F10805AB188E68586862
:103E80009E4220F003005AD0FE0758600BD454F82D
:103E9000087CED1B01F1080EAC6874453A4467D00C
:103EA000EF68E760BC601C186468E4070CD4544FEA
:103EB0009C68BC4202447CD0D868E06042F00103B8
:103EC00084606B60AA5003E042F001036B60AA506B
:103ED000B2F5007F14D2D20801EBC20348689F6894
:103EE000AF609210012404FA02F21043EB604860C4
:103EF0009D60FD604046BDE8F041FDF71BB970478D
:103F0000530A042B47D8930903F13804600001EBEE
:103F100080003A498368834243D0596821F0030105
:103F2000914202D99B689842F7D1DA68EA60AB60A7
:103F300040469560DD60BDE8F041FDF7FBB8FF0746
:103F4000024407D454F8083CED1A1A44A868EB68F8
:103F5000C36098602B4B1B6842F001009A42686076
:103F60008D60C7D3284B40461968FFF729FFC1E78A
:103F700019184968C90709D4D9689B68024442F0F6
:103F80000100D9608B606860AA50B3E742F001037A
:103F90006B60AA50AEE7142B14D803F15B046000E9
:103FA000B5E74A68A4100120A04002434A601A46BF
:103FB000BCE742F001034D610D61EC60AC606B60E9
:103FC000AA5097E7542B04D8130B03F16E0460003A
:103FD0009DE7B3F5AA7F04D8D30B03F17704600003
:103FE00095E740F25450834204D8930C03F17C04CB
:103FF00060008CE7FC207E2489E700BFD405002008
:10400000DC050020DC090020300C00202DE9F843FD
:1040100010F538771FD0884606464FF000097D68B6
:10402000BC68013D11D4A389012B05F1FF3508D9E6
:10403000B4F90E3001332146304602D0C04749EA78
:1040400000096B1C04F16804EDD13F68002FE6D134
:104050004846BDE8F883B9464846BDE8F88300BF46
:1040600070B50F4E0F4D761BB61018BF002405D04B
:10407000013455F8043B9847A642F9D10A4E0B4D3E
:10408000761B04F083FCB61018BF002406D0013460
:1040900055F8043B9847A642F9D170BD70BD00BFEA
:1040A0001C0A00201C0A0020240A00201C0A0020F0
:1040B0002DE9F04F01F10B05162D83B0064627D9E7
:1040C00035F0070500F1B680A94200F2B380FDF794
:1040D00027F8B5F5FC7F22D2C24FE80807EBC003F2
:1040E000DC689C4200F0C8816368E168A56823F041
:1040F0000303234430465A68E96042F001028D60B0
:104100005A60FDF717F80834204603B0BDE8F08F79
:10411000102900F28F80FDF703F81025DCE7680A0C
:1041200000F08F80042800F25481A8093830410043
:10413000AC4F07EB8101CC68A14206D10CE0002A0C
:1041400080F28280E468A14206D0636823F0030312
:104150005A1B0F2AF3DD01380130A2493C6901F1F5
:10416000080E744500F07D81636823F003035A1B39
:104170000F2A00F36381002AC1F814E0C1F810E0AF
:1041800073DAB3F5007F80F03981DB0801EBC308F7
:104190004FEAA30C4A68D8F80890C4F808900123A5
:1041A00003FA0CF31343C4F80C804B60C8F80840C2
:1041B000C9F80C408210012494409C4262D82342EA
:1041C00006D120F003006400234200F10400FAD07D
:1041D00007EBC008C4468146DCF80C309C4507D18B
:1041E00041E1002980F25181DB689C4500F03B8170
:1041F0005A6822F00302511B0F29F2DD1C46D3F846
:104200000CC054F8088F5A1945F0010941F0010516
:10421000C3F804903046C8F80CC0CCF808807A6126
:104220003A61C2F80CE0C2F808E055605150FCF762
:1042300081FF69E700240C232046336003B0BDE80A
:10424000F08F7E213F2073E72344E1685A68A56818
:1042500042F00102E96030468D605A60FCF76AFF67
:104260000834204603B0BDE8F08F234430465A6836
:1042700042F001025A60FCF75DFF0834204603B0AB
:10428000BDE8F08FBC68636823F00308454504D897
:10429000C5EB08030F2B00F38C80534BDFF858A1BC
:1042A0001A68DAF8003001332A4404EB080B00F0F6
:1042B000508102F580520F3222F47F6222F00F0209
:1042C00011463046019200F011FDB0F1FF3F8146EA
:1042D000019A00F04781834500F2EE80434B196854
:1042E000CB451144196000F04281DAF80000DFF894
:1042F00008E101301BBFCBEB090B5944CEF800900D
:10430000196019F0070100F00781C1F10800C1F53B
:104310008051814408314A44C2F30B02C2EB010AC6
:1043200051463046019300F0E1FC431C019B00F034
:104330002C81C9EB0002524442F001021968C7F80F
:1043400008905144BC42C9F804201960DFF89CA0D1
:1043500016D0B8F10F0F40F2EE806268A8F10C039E
:1043600023F00703E01802F001024FF0050E1A4394
:104370000F2B6260C0F804E0C0F808E000F2098189
:104380001B4BBC681A68914288BF1960194B1A68A8
:104390009142626888BF196022F003029542A2EB45
:1043A000050301D80F2B04DC3046FCF7C3FE0024C4
:1043B000AAE6621943F0010345F001056560304645
:1043C000BA605360FCF7B6FE0834204603B0BDE87F
:1043D000F08F142868D9542800F29780280B6E308B
:1043E0004100A5E6D4050020300C0020340C00204C
:1043F0002C0C0020280C0020E00900205A0A042A76
:1044000055D9142A00F2A7805B324FEA420C07EB21
:104410008C0CDFF8BC81DCF8081061457FD04A685D
:1044200022F00302934202D289688C45F7D1CA6810
:104430007B68E260A1609460CC60BBE6631942F0E7
:10444000010745F00105656030464B610B61C3F81B
:104450000CE0C3F808E05F609A500834FCF76AFE8D
:1044600052E64B68A6E609F1010919F0030F0CF1B9
:10447000080C7FF4B1AE2CE004F108036469A34298
:1044800008BF02303FF469AE2EE61A441C4651685C
:10449000DB6854F8085F41F0010151603046EB6081
:1044A0009D60FCF747FE2FE65B30410040E69A092D
:1044B00038324FEA420CAAE7BC42454B3FF40EAFFC
:1044C0009C68626822F0030268E7D8F8008098458B
:1044D0007CD110F0030FA8F1080300F1FF30F4D1F4
:1044E0007B6823EA04037B6064009C423FF6CAAE0B
:1044F000002C3FF4C7AE234248467FF469AE640007
:10450000234200F10400FAD062E6B0F5AA7F18D881
:10451000E80B773041000BE64FF48051FBE6D8F80A
:10452000043092104FF0010C0CFA02F21343C8F859
:1045300004300A467DE70123C9F804304C460022C6
:104540002CE740F2545398421CD8A80C7C30410010
:10455000EEE51032B4E6542A23D81A0B6E324FEA35
:10456000420C54E7BC68626822F0030216E7CBF302
:104570000B0000287FF4B9AE4244BB6842F0010250
:104580005A60FDE6FC217E20D2E501224FF0000AB0
:10459000D4E604F108013046FCF7A0FADAF800107E
:1045A000EEE6B2F5AA7F04D8DA0B77324FEA420C76
:1045B0002DE740F254518A4204D89A0C7C324FEADB
:1045C000420C24E74FF0FC0C7E2220E77B688BE74F
:1045D000D4050020830770B4C9B240D0541E002A0D
:1045E0003FD003788B4218BF431C06D11DE0F4B1C5
:1045F00002788A4204F1FF3417D013F0030F1846F3
:1046000003F10103F3D1032C14D884B103788B4256
:104610000BD00519431C02E002788A4205D0AB4258
:10462000184603F10103F7D1002070BC7047204603
:1046300070BC704741EA0126024646EA064610462B
:10464000043203687340A3F1013525EA030313F034
:10465000803FDAD1043C032C1046F0D8D5E714464D
:10466000D1E71046E1E700BF844641EA000313F0BA
:1046700003036DD1403A41D351F8043B40F8043B69
:1046800051F8043B40F8043B51F8043B40F8043B2C
:1046900051F8043B40F8043B51F8043B40F8043B1C
:1046A00051F8043B40F8043B51F8043B40F8043B0C
:1046B00051F8043B40F8043B51F8043B40F8043BFC
:1046C00051F8043B40F8043B51F8043B40F8043BEC
:1046D00051F8043B40F8043B51F8043B40F8043BDC
:1046E00051F8043B40F8043B51F8043B40F8043BCC
:1046F00051F8043B40F8043B403ABDD2303211D36C
:1047000051F8043B40F8043B51F8043B40F8043BAB
:1047100051F8043B40F8043B51F8043B40F8043B9B
:10472000103AEDD20C3205D351F8043B40F8043B6B
:10473000043AF9D2043208D0D2071CBF11F8013B69
:1047400000F8013B01D30B8803806046704700BF2F
:10475000082A13D38B078DD010F003038AD0C3F13E
:104760000403D21ADB071CBF11F8013B00F8013B20
:1047700080D331F8023B20F8023B7BE7043AD9D3DF
:10478000013A11F8013B00F8013BF9D20B780370B4
:104790004B7843708B788370604670478842F0B5E1
:1047A0000DD98B1898420AD28118002A54D09A1A2F
:1047B00013F8014D01F8014D9342F9D1F0BD0F2AD4
:1047C00048D940EA01039B0747D100F1100401F1E9
:1047D0001003154653F8106C44F8106C53F80C6C29
:1047E00044F80C6C53F8086C44F8086C103D53F80E
:1047F000046C44F8046C0F2D03F1100304F1100451
:10480000E8D8A2F1100323F00F0302F00F0E1033CB
:10481000BEF1030F1944034421D91E1F0D467446EF
:10482000043C55F8047B46F8047F032CF8D8AEF11D
:10483000040424F0030404342344214402F003025A
:1048400052B1013B0A4411F8014B03F8014F914268
:10485000F9D1F0BD0346F3E7F0BD0346F1E7724638
:10486000EEE700BF70B4840746D0541E002A41D042
:10487000CDB2034602E0621EE4B3144603F8015BC6
:104880009A07F8D1032C2ED9CDB245EA05250F2C75
:1048900045EA054519D903F110022646103E0F2EB0
:1048A00042F8105C42F80C5C42F8085C42F8045C88
:1048B00002F11002F2D8A4F1100222F00F0204F06B
:1048C0000F041032032C13440DD91E462246043A1D
:1048D000032A46F8045BFAD8221F22F003020432AE
:1048E000134404F003042CB1C9B21C4403F8011BA7
:1048F000A342FBD170BC704714460346C2E700BF19
:104900002DE9F04F174683B00E46002900F0E780EE
:10491000814607F10B05FCF703FC56F8043C162D05
:1049200023F00304A6F108084CD810221546AF4224
:104930004DD8944280F28480DFF8ACB3DBF80800F5
:1049400008EB0401884200F0D680486820F0010E90
:104950008E44DEF804E01EF0010F3FD120F003008A
:104960002044904280F2C180DB0700F18F8056F82E
:10497000083CC3EB080ADAF8043023F0030300EB29
:10498000030E964534DBCB688A685746D3609A603D
:1049900057F8081FDAF80C30CB60221F242A9960E0
:1049A00000F23681132A40F2FD803368CAF80830DD
:1049B0007368CAF80C301B2A00F2408108360AF1ED
:1049C0001003F0E025F00705002D2A46AFDA0C238E
:1049D0000020C9F8003003B0BDE8F08FD90755D4E6
:1049E00056F8083CC3EB080ADAF8043023F0030356
:1049F000234493424ADB5746DAF80C1057F8080F65
:104A0000221F242AC160886000F20E81132A40F21E
:104A100009813168CAF808107168CAF80C101B2A9D
:104A200000F2218108360AF11002316811607168C4
:104A30005160B16891601C46DAF804303E46D046B9
:104A4000621B0F2A03F001030ED823434444C8F825
:104A50000430636843F0010363604846FCF76AFB77
:104A6000304603B0BDE8F08F08EB05011D4342F06E
:104A700001030A44C8F804504B60536843F0010333
:104A8000083153604846FCF729F8E6E739464846BE
:104A9000FCF702F80746D8B156F8043C23F00102AF
:104AA0004244A0F10801914200F0AC80221F242A68
:104AB00000F29980132A6AD80346324611681960B9
:104AC0005168596092689A6031464846FCF706F88A
:104AD0004846FCF72FFB384603B0BDE8F08F11467F
:104AE00003B0BDE8F04FFBF7D7BFCA68896804463A
:104AF000CA609160A4E7416821F00301214405F1F7
:104B0000100081425BDADB07C0D456F8083CC3EBE7
:104B1000080ADAF8043023F0030301EB030C6045C4
:104B20003FF766AF5746DAF80C3057F8081F221FD8
:104B3000242ACB60996000F2B880132A40F2A98041
:104B40003368CAF808307368CAF80C301B2A00F2C0
:104B5000B58008360AF1100332681A6072685A602C
:104B6000B2689A600AEB0502C5EB0C0343F001033F
:104B7000CBF808205360DAF8043003F001031D433A
:104B80004846CAF80450FCF7D5FA384669E7336856
:104B90000360736843601B2A29D800F1080306F1FB
:104BA00008028BE73B4632681A6072685A60B26846
:104BB0009A603E467446DAF80430D04640E708EB87
:104BC00005024B1B43F00103CBF80820536056F855
:104BD000043C03F001031D43484646F8045CFCF71F
:104BE000A9FA30463DE73146FFF7D8FD6CE7B368D8
:104BF0008360F368C360242A2CD000F1100306F10F
:104C000010025BE750F8042C22F00302144417E76B
:104C10003146384674463E46FFF7C0FDD046DAF8C6
:104C200004300DE73A4600E7314638461C463E461A
:104C3000FFF7B4FDD046DAF8043001E7B368CAF8EC
:104C40001030F368CAF81430242A18D010360AF14C
:104C50001803A8E7336903617369436106F1180219
:104C600000F118032AE7B168CAF81010F168CAF811
:104C70001410242A0FD010360AF11802D5E6336931
:104C8000CAF818307369CAF81C3018360AF12003C4
:104C900089E73B4660E73269CAF818207269CAF8AA
:104CA0001C2018360AF12002BFE631463846CDF8FE
:104CB00004C0FFF773FDDDF804C053E7B368CAF81A
:104CC0001030F368CAF81430242A03D010360AF1E1
:104CD000180341E73369CAF818307369CAF81C3001
:104CE00018360AF1200337E7D405002038B5074C01
:104CF0000023054608462360FCF798F9431C00D0C2
:104D000038BD2368002BFBD02B6038BD680F002016
:104D100010B50C46B1F90E1001F0C6FB002803DBFC
:104D2000236D0344236510BDA38923F48053A3811D
:104D300010BD00BF2DE9F04116468A891D46D305F6
:104D40000C46074606D50022B1F90E10022301F0E9
:104D5000A3F8A289B4F90E1022F48052A281384639
:104D600032462B46BDE8F04100F08CB810B50C4639
:104D7000B1F90E1001F090F8A389421C0EBF23F484
:104D8000805343F480532065A38110BDB1F90E1008
:104D900000F08CB820F0030110F00300C0F1000017
:104DA00051F8043B00F1040C4FEACC0C6FF0000208
:104DB0001CBF22FA0CF213434FF0010C4CEA0C2CEE
:104DC0004CEA0C4CA3EB0C0222EA030212EACC12CE
:104DD00004BF51F8043B0430F4D0C2F1000102EAF0
:104DE0000102B2FA82F2C2F11F0200EBD200704758
:104DF00070B5002A9AB005462FDB14461A464FF4C8
:104E0000027300910491ADF80C3011D0013C4FF6C3
:104E1000FF7669461E9B02940594ADF80E6001F082
:104E200083FB421C16DB009B00221A701AB070BD77
:104E30001E9B02944FF6FF7669460594ADF80E600E
:104E400001F072FB431C01DB1AB070BD8B232B6099
:104E50001AB070BD8B232B60E5E78B2303604FF006
:104E6000FF30F1E730B583B0054C009324680D4660
:104E7000134601462A462046FFF7BAFF03B030BD6D
:104E8000D005002070B5084C06460025084611469E
:104E90001A462560FBF7F2FF431C00D070BD236863
:104EA000002BFBD0336070BD680F002038B5074C75
:104EB0000023054608462360FBF7A6FF431C00D0ED
:104EC00038BD2368002BFBD02B6038BD680F002055
:104ED00002690B69934200F38F802DE9F04F03F1D3
:104EE000FF3801F1140700F1140B57F828205BF884
:104EF00028304FEA880483B00132B3FBF2F90BEBA0
:104F00000403009407EB040A0193B9F1000F3BD0AE
:104F100000263246BC46DE4634465CF8046BDEF8BA
:104F20000050B3B2360C03FB094406FB09F606EB4E
:104F30001446A3B2D31AB4B213FA85F3C4EB1544E2
:104F400004EB23449BB243EA0443E2454FEA244284
:104F50004EF8043B4FEA1644DFD2009B5BF8033067
:104F600093B9019C231F9B450CD254F8043C4BB9C8
:104F7000A4F1080302E01A68043B1AB99B4508F142
:104F8000FF38F8D3C0F81080044601F0A3F90028D8
:104F90002EDB09F101095D46002357F8041B286840
:104FA0008AB29A1A090C12FA80F2C1EB104303EB91
:104FB000224391B241EA0341BA4545F8041B4FEA46
:104FC0002343EAD25BF828200BEB880382B91A1F2F
:104FD00093450BD253F8042C42B9083B02E01A68FF
:104FE000043B1AB99B4508F1FF38F8D3C4F8108088
:104FF000484603B0BDE8F08F002070470000000075
:105000002DE9F04F016C97B00446239DCDE90223B2
:1050100041B1426C4A60012393408B6000F076FFFF
:1050200000232364DDE90223002B994636DB0023AD
:105030002B60A54B1A4609EA0303934217D0DDE91A
:105040000267002200233046394603F077F9804694
:1050500000282BD0229A01231360249B002B00F000
:10506000CB809A481860013817B0BDE8F08F229ABB
:1050700042F20F731360029B002B00F0A68094484D
:10508000249B002BF0D0C378002B00F0B78000F1F8
:105090000803249A136017B0BDE8F08F039A012328
:1050A00022F000492B60CDF80C90C2E715AA14AB92
:1050B0008DE80C00204632463B4601F099F95FEA44
:1050C0001955834640F08A80DDF85080159D6FF4B5
:1050D000826345449D42C0F297827E4A521B09FA80
:1050E00002F9029A05F2124322FA03F049EA00009B
:1050F00002F046FE0123013DA1F1F8710D9300225B
:10510000754B02F0FFFC6AA3D3E9002302F0AEFE68
:1051100069A3D3E9002302F0F7FC064628460F46B0
:1051200002F03EFE66A3D3E9002302F09FFE024692
:105130000B463046394602F0E7FC06460F4603F0C0
:105140002FF93946049000223046002303F000F97D
:10515000002840F0A681049B162B00F29F81049A40
:105160005E4B03EBC203D3E90001DDE9022303F048
:105170000DF9002800F04E82049B013B04930023AC
:105180000B93C5EB0805B5F1010A00F1A1810023DD
:105190000593049B002BC0F292819A440A9300234A
:1051A0000893209B092B2BD8052B40F36D86043BDD
:1051B00020930025209B023B032B00F24B86DFE867
:1051C00013F0CC03BE03B2026006414B444AC9F35C
:1051D0001300002814BF1846104651E7C7F3130305
:1051E00043F07F51CDF834803046A5F2FF3541F4CD
:1051F0004011DDF8508082E73A4835E7C31C48E7A4
:10520000002161642046209100F05AFE4FF0FF33E8
:105210000693209A0C93012307902192206409930E
:10522000159B002BC0F2D280049A0E2A00F3CE8088
:105230002A4B03EBC203D3E90089219B002BC0F268
:105240008F83DDE9026742464B463046394602F01D
:1052500037FF03F0A5F8824602F0A2FD42464B4616
:1052600002F004FE0B4602463946304602F04AFC84
:10527000079D0AF130032B70069B012B06460F4653
:1052800005F1010562D00022174B02F0EFFD00226C
:10529000002306460F4603F051F8002840F08380B3
:1052A000CDF808B00594DDF81CB0069C29E000BFDD
:1052B00061436F63A787D23FB3C8608B288AC63F1C
:1052C000FB799F501344D33F0000F07F818D00088D
:1052D0007C8D00080EFCFFFF0000F83F908D000859
:1052E000708D0008808D00080000244002F0BEFD93
:1052F0000022002306460F4603F020F8002840F065
:10530000DE8342464B463046394602F0D9FE03F072
:1053100047F8824602F044FD42464B4602F0A6FDA5
:1053200002460B463046394602F0ECFB0AF1300EDD
:1053300005F801EBCBEB050E744506460F464FF022
:105340000002B54BD2D1DDF808B0059C32463B4691
:105350003046394602F0D8FB06460F4640464946DD
:1053600032463B4602F0F4FF48B9404649463246D1
:105370003B4602F0E3FFB0B11AF0010F13D015F86D
:10538000018C07996B1E04E08B4200F0428413F8F5
:10539000018DB8F1390F03F101051A46F4D008F177
:1053A0000103DBB213702046594600F0AFFD002226
:1053B000049B2A70229A01331360249B002B00F077
:1053C000458307981D6017B0BDE8F08F099A002A41
:1053D00000F08480209A012A40F30483069B5F1E1C
:1053E000089BBB42C0F2A083DF1B069B002BC0F2D0
:1053F0009E84059D069B059A20461A44012105922C
:105400009A4400F01DFE064665B1BAF1000F09DDB1
:10541000AA45059A5346A8BF2B46D21A0592ED1A03
:10542000C3EB0A0A089B002B1ADD099B002B00F036
:105430007483002F10DD31463A46204600F0A4FE6A
:1054400006465A463146204600F004FE594680463C
:10545000204600F05BFDC346089BDA1B40F0A282A9
:105460002046012100F0ECFD0A9B002B804639DD2F
:1054700001461A46204600F087FE209B012B8046FD
:1054800040F396824FF00009D8F8103008EB830300
:10549000186900F087FDC0F120002DE001230B9377
:1054A0006FE6049802F07CFC32463B4602F046FF71
:1054B00000287FF450AE049B013B04934BE6059A11
:1054C000049BD21A5B420893002305920A9368E674
:1054D000CAF1000305934FF0000A5AE6089F059DA4
:1054E000099E91E7209B012B40F3B3824FF0000906
:1054F0000A9B002BC8D10120504410F01F0000F07F
:105500008180C0F12003042B40F3B584C0F11C005E
:10551000059B0344059305448244059B002B05DD50
:1055200059461A46204600F07FFE8346BAF1000F26
:1055300005DD41465246204600F076FE80460B9B34
:10554000002B40F06882069B002B40F39582099B5C
:10555000002B71D1DDF81C90069F4D4602E000F053
:10556000DFFC834641465846FFF7B2FC00F1300CA1
:1055700005F801CBC9EB0503BB42204659464FF065
:105580000A024FF00003EADB079B069A012AACBF30
:105590009B1801331D464FF0000A59460122204650
:1055A000CDF808C000F040FE4146834600F092FE70
:1055B0000028DDF808C040F3ED8215F8012C0799AA
:1055C0006B1E04E08B4200F0738213F8012D392A20
:1055D00003F10105F6D001321A704146204600F071
:1055E00095FC002E3FF4DFAEBAF1000F05D0B245B6
:1055F00003D05146204600F089FC3146204600F099
:1056000085FCD0E61C2083E7044B029A5B1B02FA60
:1056100003F06DE50B90B4E500002440EEFBFFFFC6
:105620003146002320460A2200F07AFC0C9B002B16
:10563000064640F309840693002D05DD31462A46CF
:10564000204600F0F1FD0646B9F1000F40F0EB8274
:10565000B146069B079A013BD3180893029B03F0BF
:1056600001030993174641465846FFF731FC31467E
:105670000546584600F02EFE4A46824641462046E0
:1056800000F04CFEC268034605F1300C002A40F0E1
:10569000B88119465846CDF818C0059300F01AFE97
:1056A000059B02901946204600F030FC029ADDF876
:1056B00018C02AB9209B1BB9099B002B00F0A883B6
:1056C000BAF1000FC0F2488205D1209B1BB9099B9B
:1056D000002B00F04182002A00F3B982089B87F872
:1056E00000C007F1010A9F42554600F0BC825946AE
:1056F0000A220023204600F013FC4E458346314623
:1057000020464FF00A024FF0000300F0748100F0D1
:1057100007FC494606460A222046002300F000FC0A
:10572000574681469FE701230993219B002B40F3B5
:105730000A821F461E460C9306930021172F6164B0
:105740000AD9012204235B0003F1140087421146A9
:1057500002F10102F7D26164204600F0B1FB0E2E87
:10576000079020643FF65CAD002D3FF459AD9DEDF0
:10577000027B049900298DED0E7B40F32382B74B09
:1057800001F00F020D1103EBC203E906D3E9006734
:1057900040F1D281B24B51EC170BD3E9082302F050
:1057A0008FFCCDE9020105F00F054FF003088DB124
:1057B000DFF8AC9230463946EA0705D5D9E900232F
:1057C00002F054FB08F101086D1009F10809F3D14A
:1057D00006460F46DDE9020132463B4602F070FC08
:1057E000CDE902010B9B43B1DDE9020100229D4B93
:1057F00002F0AEFD002840F0AE82404602F0D0FA42
:10580000DDE9022302F032FB974B002202F07CF923
:10581000069B0646A1F15077002B00F06281049BA5
:10582000DDF818901293099B002B00F023828B4B1C
:105830008E4903EBC90353E90223002002F040FC28
:1058400032463B4602F05EF9DDE90267CDE9100120
:105850003946304602F0A4FD054602F0A1FA303583
:1058600002460B463046394602F04CF95FFA85F89D
:10587000079DDDE9102385F8008006460F460135B7
:1058800002F066FD002840F0A78232463B46002029
:10589000744902F037F902460B46DDE9100102F0C7
:1058A00075FD002840F0AD82B9F1010F40F384810D
:1058B000079BCDF84CA0CDF808B09944DDE910ABBA
:1058C000A0460DE00020674902F01CF952465B46F5
:1058D00002F03EFD002840F08F824D4500F06781C8
:1058E000504659460022624B02F0C0FA0022604B3B
:1058F00082468B463046394602F0B8FA0F460646D5
:1059000002F04EFD044602F04BFA02460B463046CA
:10591000394602F0F7F83034E4B252465B4605F8F7
:10592000014B06460F4602F013FD32463B46002867
:10593000C8D0129BDDF808B00493444633E5002339
:105940000993219B049A13440C930133002B069373
:1059500040F30081069E3746EFE600230993E4E614
:10596000069B002B3FF76DAC40F0D38040460022F1
:10597000404B494602F07AFADDE9022302F0FCFCD2
:10598000DDF818804646002800F08A80219B079D9C
:10599000DB4304934146204600F0B8FA002E7FF422
:1059A0002CAE00E55946204600F0EEFB834657E555
:1059B000029B002B7FF466AD039BC3F31303002B04
:1059C0007FF494AD039B23F000473F0D3F05002F6C
:1059D00000F01B82059B013305930AF1010A4FF089
:1059E000010985E50D9A002A00F0A78103F23343EF
:1059F000089F059DFFE400F093FA5746064681464E
:105A000031E601462046CDF808C000F07FFA0122B9
:105A1000DDF808C054E65846414600F05BFC00281B
:105A2000BFF691AD049F5946002320460A22013F4C
:105A3000049700F075FA099B8346002B7FF4F0ADC4
:105A40000C9B002B40F3F581069383E50798FFF745
:105A50000BBB029B002B7FF449ADADE7908D000896
:105A6000588E00080000F03F00001C400000E03F9E
:105A70000000244000001440209B022B7FF767ADFC
:105A8000069B002B82D141460522204600F048FAB1
:105A900080464146584600F01DFC00287FF776AF4F
:105AA000049A07993123013204920B704D1C71E75F
:105AB000049A01320492079A312313708DE5DDF8C0
:105AC00008B0059C6FE4404602F06AF9DDE9022364
:105AD00002F0CCF90022C24B02F016F80646A1F102
